{
  "contractName": "Customer",
  "abi": [
    {
      "anonymous": false,
      "inputs": [
        {
          "indexed": true,
          "internalType": "address",
          "name": "medicineAddress",
          "type": "address"
        },
        {
          "indexed": true,
          "internalType": "address",
          "name": "buyer",
          "type": "address"
        },
        {
          "indexed": false,
          "internalType": "uint256",
          "name": "quantity",
          "type": "uint256"
        },
        {
          "indexed": false,
          "internalType": "uint256",
          "name": "timestamp",
          "type": "uint256"
        }
      ],
      "name": "MedicinePurchased",
      "type": "event"
    },
    {
      "anonymous": false,
      "inputs": [
        {
          "indexed": false,
          "internalType": "address",
          "name": "_address",
          "type": "address"
        },
        {
          "indexed": true,
          "internalType": "address",
          "name": "Customer",
          "type": "address"
        },
        {
          "indexed": false,
          "internalType": "uint256",
          "name": "status",
          "type": "uint256"
        }
      ],
      "name": "MedicineStatus",
      "type": "event"
    },
    {
      "anonymous": false,
      "inputs": [
        {
          "indexed": true,
          "internalType": "bytes32",
          "name": "orderId",
          "type": "bytes32"
        },
        {
          "indexed": true,
          "internalType": "address",
          "name": "buyer",
          "type": "address"
        },
        {
          "indexed": false,
          "internalType": "uint256",
          "name": "amount",
          "type": "uint256"
        },
        {
          "indexed": false,
          "internalType": "uint256",
          "name": "timestamp",
          "type": "uint256"
        }
      ],
      "name": "OrderPlaced",
      "type": "event"
    },
    {
      "inputs": [
        {
          "internalType": "address",
          "name": "",
          "type": "address"
        },
        {
          "internalType": "uint256",
          "name": "",
          "type": "uint256"
        }
      ],
      "name": "MedicineBatchAtCustomer",
      "outputs": [
        {
          "internalType": "address",
          "name": "",
          "type": "address"
        }
      ],
      "stateMutability": "view",
      "type": "function"
    },
    {
      "inputs": [
        {
          "internalType": "address",
          "name": "",
          "type": "address"
        },
        {
          "internalType": "uint256",
          "name": "",
          "type": "uint256"
        }
      ],
      "name": "purchaseHistory",
      "outputs": [
        {
          "internalType": "address",
          "name": "medicineAddress",
          "type": "address"
        },
        {
          "internalType": "address",
          "name": "buyer",
          "type": "address"
        },
        {
          "internalType": "uint256",
          "name": "quantity",
          "type": "uint256"
        },
        {
          "internalType": "uint256",
          "name": "timestamp",
          "type": "uint256"
        }
      ],
      "stateMutability": "view",
      "type": "function"
    },
    {
      "inputs": [
        {
          "internalType": "address",
          "name": "",
          "type": "address"
        }
      ],
      "name": "sale",
      "outputs": [
        {
          "internalType": "enum Customer.salestatus",
          "name": "",
          "type": "uint8"
        }
      ],
      "stateMutability": "view",
      "type": "function"
    },
    {
      "inputs": [
        {
          "internalType": "address",
          "name": "_address",
          "type": "address"
        },
        {
          "internalType": "address",
          "name": "cid",
          "type": "address"
        }
      ],
      "name": "medicineRecievedAtCustomer",
      "outputs": [],
      "stateMutability": "nonpayable",
      "type": "function"
    },
    {
      "inputs": [
        {
          "internalType": "address",
          "name": "_address",
          "type": "address"
        },
        {
          "internalType": "uint256",
          "name": "Status",
          "type": "uint256"
        }
      ],
      "name": "updateSaleStatus",
      "outputs": [],
      "stateMutability": "nonpayable",
      "type": "function"
    },
    {
      "inputs": [
        {
          "internalType": "address",
          "name": "_address",
          "type": "address"
        }
      ],
      "name": "salesInfo",
      "outputs": [
        {
          "internalType": "uint256",
          "name": "Status",
          "type": "uint256"
        }
      ],
      "stateMutability": "view",
      "type": "function"
    },
    {
      "inputs": [
        {
          "internalType": "address",
          "name": "buyer",
          "type": "address"
        }
      ],
      "name": "getPurchaseHistory",
      "outputs": [
        {
          "components": [
            {
              "internalType": "address",
              "name": "medicineAddress",
              "type": "address"
            },
            {
              "internalType": "address",
              "name": "buyer",
              "type": "address"
            },
            {
              "internalType": "uint256",
              "name": "quantity",
              "type": "uint256"
            },
            {
              "internalType": "uint256",
              "name": "timestamp",
              "type": "uint256"
            }
          ],
          "internalType": "struct Customer.Purchase[]",
          "name": "",
          "type": "tuple[]"
        }
      ],
      "stateMutability": "view",
      "type": "function"
    },
    {
      "inputs": [
        {
          "internalType": "bytes32",
          "name": "orderId",
          "type": "bytes32"
        },
        {
          "internalType": "address",
          "name": "buyer",
          "type": "address"
        },
        {
          "internalType": "uint256",
          "name": "amount",
          "type": "uint256"
        }
      ],
      "name": "placeOrder",
      "outputs": [],
      "stateMutability": "nonpayable",
      "type": "function"
    }
  ],
  "bytecode": "0x608060405234801561001057600080fd5b506107f8806100206000396000f3fe608060405234801561001057600080fd5b50600436106100785760003560e01c8063209936fe1461007d57806321034444146100a95780634aab0726146100c957806375df2684146100e9578063bb8ee1c514610109578063cbb0729214610129578063da48f20c1461013e578063eae3c20714610151575b600080fd5b61009061008b366004610640565b610164565b6040516100a094939291906106e5565b60405180910390f35b6100bc6100b73660046105ea565b6101b3565b6040516100a09190610727565b6100dc6100d7366004610640565b610258565b6040516100a091906106b7565b6100fc6100f73660046105ea565b61028d565b6040516100a09190610797565b61011c6101173660046105ea565b6102a2565b6040516100a091906107ab565b61013c61013736600461066a565b6102cf565b005b61013c61014c36600461060c565b610318565b61013c61015f366004610640565b6103f3565b6002602052816000526040600020818154811061017d57fe5b600091825260209091206004909102018054600182015460028301546003909301546001600160a01b0392831695509116925084565b6001600160a01b0381166000908152600260209081526040808320805482518185028101850190935280835260609492939192909184015b8282101561024d576000848152602090819020604080516080810182526004860290920180546001600160a01b0390811684526001808301549091168486015260028201549284019290925260030154606083015290835290920191016101eb565b505050509050919050565b6000602052816000526040600020818154811061027157fe5b6000918252602090912001546001600160a01b03169150829050565b60016020526000908152604090205460ff1681565b6001600160a01b03811660009081526001602052604081205460ff1660048111156102c957fe5b92915050565b816001600160a01b0316837f7a67b5833ddfd91f5184048f7358bf59947ad38ce898eda9e834cc40ec0e0279834260405161030b9291906107b4565b60405180910390a3505050565b604051637bd6ee1f60e11b81526001600160a01b0382169063f7addc3e9061034690859033906004016106cb565b600060405180830381600087803b15801561036057600080fd5b505af1158015610374573d6000803e3d6000fd5b5050336000908152602081815260408220805460018082018355918452919092200180546001600160a01b0319166001600160a01b03871617905591506103b89050565b6001600160a01b03831660009081526001602081905260409091208054909160ff19909116908360048111156103ea57fe5b02179055505050565b8060048111156103ff57fe5b6001600160a01b03831660009081526001602081905260409091208054909160ff199091169083600481111561043157fe5b0217905550806002141561058c5760008290506000816001600160a01b03166317fc45e26040518163ffffffff1660e01b815260040160206040518083038186803b15801561047f57600080fd5b505afa158015610493573d6000803e3d6000fd5b505050506040513d601f19601f820116820180604052508101906104b7919061069f565b33600081815260026020818152604080842081516080810183526001600160a01b038c81168083528286018981528386018b81524260608601818152875460018181018a55988d5299909b209551600490990290950180549885166001600160a01b0319998a161781559151958201805496909416959097169490941790915593519482019490945593516003909401939093559151939450919290917fda65a424ed91d3cf72a9c9f56a0721754b82e33a8dfd3ee95a3a0550d363e53d916105819186916107b4565b60405180910390a350505b336001600160a01b03167f778762ccb04f5a8838ed8914b13eb6f118224696959cbfa0cfea54133f76a7d583836040516105c792919061070e565b60405180910390a25050565b80356001600160a01b03811681146102c957600080fd5b6000602082840312156105fb578081fd5b61060583836105d3565b9392505050565b6000806040838503121561061e578081fd5b61062884846105d3565b915061063784602085016105d3565b90509250929050565b60008060408385031215610652578182fd5b61065c84846105d3565b946020939093013593505050565b60008060006060848603121561067e578081fd5b8335925061068f85602086016105d3565b9150604084013590509250925092565b6000602082840312156106b0578081fd5b5051919050565b6001600160a01b0391909116815260200190565b6001600160a01b0392831681529116602082015260400190565b6001600160a01b0394851681529290931660208301526040820152606081019190915260800190565b6001600160a01b03929092168252602082015260400190565b602080825282518282018190526000919060409081850190868401855b8281101561078a57815180516001600160a01b03908116865287820151168786015285810151868601526060908101519085015260809093019290850190600101610744565b5091979650505050505050565b60208101600583106107a557fe5b91905290565b90815260200190565b91825260208201526040019056fea2646970667358221220ab57021f759d5b7b7b708969dcefc11bc535ad1def391ad848df39decf1eaf8464736f6c63430006060033",
  "immutableReferences": {},
  "source": "// SPDX-License-Identifier: MIT\r\npragma solidity ^0.6.6;\r\npragma experimental ABIEncoderV2;\r\n\r\nimport './MedicineD_C.sol';\r\nimport './Medicine.sol';\r\n\r\ncontract Customer {\r\n    struct Purchase {\r\n        address medicineAddress;\r\n        address buyer;\r\n        uint256 quantity;\r\n        uint256 timestamp;\r\n    }\r\n\r\n    mapping(address => address[]) public MedicineBatchAtCustomer;\r\n    mapping(address => salestatus) public sale;\r\n    mapping(address => Purchase[]) public purchaseHistory;\r\n\r\n    enum salestatus {\r\n        notfound,\r\n        atcustomer,\r\n        sold,\r\n        expired,\r\n        damaged\r\n    }\r\n\r\n    event MedicinePurchased(\r\n        address indexed medicineAddress,\r\n        address indexed buyer,\r\n        uint256 quantity,\r\n        uint256 timestamp\r\n    );\r\n\r\n    event MedicineStatus(\r\n        address _address,\r\n        address indexed Customer,\r\n        uint status\r\n    );\r\n\r\n    event OrderPlaced(\r\n        bytes32 indexed orderId,\r\n        address indexed buyer,\r\n        uint256 amount,\r\n        uint256 timestamp\r\n    );\r\n\r\n    function medicineRecievedAtCustomer(\r\n        address _address,\r\n        address cid\r\n    ) public {\r\n        MedicineD_C(cid).receiveDC(_address, msg.sender);\r\n        MedicineBatchAtCustomer[msg.sender].push(_address);\r\n        sale[_address] = salestatus(1);\r\n    }\r\n\r\n    function updateSaleStatus(\r\n        address _address,\r\n        uint Status\r\n    ) public {\r\n        sale[_address] = salestatus(Status);\r\n\r\n        if(Status == 2) {\r\n            Medicine med = Medicine(_address);\r\n            uint256 quantity = med.quantity();\r\n            purchaseHistory[msg.sender].push(Purchase({\r\n                medicineAddress: _address,\r\n                buyer: msg.sender,\r\n                quantity: quantity,\r\n                timestamp: block.timestamp\r\n            }));\r\n            emit MedicinePurchased(\r\n                _address,\r\n                msg.sender,\r\n                quantity,\r\n                block.timestamp\r\n            );\r\n        }\r\n\r\n        emit MedicineStatus(_address, msg.sender, Status);\r\n    }\r\n\r\n    function salesInfo(\r\n        address _address\r\n    ) public\r\n    view\r\n    returns(\r\n        uint Status\r\n    ){\r\n        return uint(sale[_address]);\r\n    }\r\n\r\n    function getPurchaseHistory(address buyer) public view returns (Purchase[] memory) {\r\n        return purchaseHistory[buyer];\r\n    }\r\n\r\n    function placeOrder(\r\n        bytes32 orderId,\r\n        address buyer,\r\n        uint256 amount\r\n    ) public {\r\n        emit OrderPlaced(\r\n            orderId,\r\n            buyer,\r\n            amount,\r\n            block.timestamp\r\n        );\r\n    }\r\n}",
  "sourcePath": "D:\\Mini Projects\\Major Project\\Pharma\\Pharma-Chain\\blockchain\\testing\\Customer.sol",
  "compiler": {
    "name": "solc",
    "version": "0.6.6+commit.6c089d02.Emscripten.clang"
  },
  "schemaVersion": "3.4.16",
  "updatedAt": "2025-02-13T06:50:55.902Z",
  "devdoc": {
    "methods": {}
  },
  "userdoc": {
    "methods": {}
  }
}