{
  "contractName": "SupplyChain",
  "abi": [
    {
      "inputs": [],
      "stateMutability": "nonpayable",
      "type": "constructor"
    },
    {
      "anonymous": false,
      "inputs": [
        {
          "indexed": true,
          "internalType": "address",
          "name": "_address",
          "type": "address"
        },
        {
          "indexed": false,
          "internalType": "bytes32",
          "name": "name",
          "type": "bytes32"
        }
      ],
      "name": "UserRegister",
      "type": "event"
    },
    {
      "anonymous": false,
      "inputs": [
        {
          "indexed": false,
          "internalType": "address",
          "name": "buyer",
          "type": "address"
        },
        {
          "indexed": true,
          "internalType": "address",
          "name": "seller",
          "type": "address"
        },
        {
          "indexed": false,
          "internalType": "address",
          "name": "packageAddr",
          "type": "address"
        },
        {
          "indexed": false,
          "internalType": "bytes",
          "name": "signature",
          "type": "bytes"
        },
        {
          "indexed": true,
          "internalType": "uint256",
          "name": "timestamp",
          "type": "uint256"
        }
      ],
      "name": "buyEvent",
      "type": "event"
    },
    {
      "anonymous": false,
      "inputs": [
        {
          "indexed": true,
          "internalType": "address",
          "name": "buyer",
          "type": "address"
        },
        {
          "indexed": false,
          "internalType": "address",
          "name": "seller",
          "type": "address"
        },
        {
          "indexed": false,
          "internalType": "address",
          "name": "packageAddr",
          "type": "address"
        },
        {
          "indexed": false,
          "internalType": "bytes",
          "name": "signature",
          "type": "bytes"
        },
        {
          "indexed": true,
          "internalType": "uint256",
          "name": "timestamp",
          "type": "uint256"
        }
      ],
      "name": "receivedEvent",
      "type": "event"
    },
    {
      "anonymous": false,
      "inputs": [
        {
          "indexed": true,
          "internalType": "address",
          "name": "buyer",
          "type": "address"
        },
        {
          "indexed": false,
          "internalType": "address",
          "name": "seller",
          "type": "address"
        },
        {
          "indexed": false,
          "internalType": "address",
          "name": "packageAddr",
          "type": "address"
        },
        {
          "indexed": false,
          "internalType": "bytes",
          "name": "signature",
          "type": "bytes"
        },
        {
          "indexed": true,
          "internalType": "uint256",
          "name": "timestamp",
          "type": "uint256"
        }
      ],
      "name": "respondEvent",
      "type": "event"
    },
    {
      "anonymous": false,
      "inputs": [
        {
          "indexed": false,
          "internalType": "address",
          "name": "seller",
          "type": "address"
        },
        {
          "indexed": false,
          "internalType": "address",
          "name": "buyer",
          "type": "address"
        },
        {
          "indexed": true,
          "internalType": "address",
          "name": "packageAddr",
          "type": "address"
        },
        {
          "indexed": false,
          "internalType": "bytes",
          "name": "signature",
          "type": "bytes"
        },
        {
          "indexed": true,
          "internalType": "uint256",
          "name": "timestamp",
          "type": "uint256"
        }
      ],
      "name": "sendEvent",
      "type": "event"
    },
    {
      "inputs": [
        {
          "internalType": "address",
          "name": "",
          "type": "address"
        },
        {
          "internalType": "uint256",
          "name": "",
          "type": "uint256"
        }
      ],
      "name": "MedicineDtoC",
      "outputs": [
        {
          "internalType": "address",
          "name": "",
          "type": "address"
        }
      ],
      "stateMutability": "view",
      "type": "function",
      "constant": true
    },
    {
      "inputs": [
        {
          "internalType": "address",
          "name": "",
          "type": "address"
        }
      ],
      "name": "MedicineDtoCTxContract",
      "outputs": [
        {
          "internalType": "address",
          "name": "",
          "type": "address"
        }
      ],
      "stateMutability": "view",
      "type": "function",
      "constant": true
    },
    {
      "inputs": [
        {
          "internalType": "address",
          "name": "",
          "type": "address"
        },
        {
          "internalType": "uint256",
          "name": "",
          "type": "uint256"
        }
      ],
      "name": "MedicineWtoD",
      "outputs": [
        {
          "internalType": "address",
          "name": "",
          "type": "address"
        }
      ],
      "stateMutability": "view",
      "type": "function",
      "constant": true
    },
    {
      "inputs": [
        {
          "internalType": "address",
          "name": "",
          "type": "address"
        }
      ],
      "name": "MedicineWtoDTxContract",
      "outputs": [
        {
          "internalType": "address",
          "name": "",
          "type": "address"
        }
      ],
      "stateMutability": "view",
      "type": "function",
      "constant": true
    },
    {
      "inputs": [
        {
          "internalType": "address",
          "name": "",
          "type": "address"
        },
        {
          "internalType": "uint256",
          "name": "",
          "type": "uint256"
        }
      ],
      "name": "MedicinesAtDistributor",
      "outputs": [
        {
          "internalType": "address",
          "name": "",
          "type": "address"
        }
      ],
      "stateMutability": "view",
      "type": "function",
      "constant": true
    },
    {
      "inputs": [
        {
          "internalType": "address",
          "name": "",
          "type": "address"
        },
        {
          "internalType": "uint256",
          "name": "",
          "type": "uint256"
        }
      ],
      "name": "MedicinesAtWholesaler",
      "outputs": [
        {
          "internalType": "address",
          "name": "",
          "type": "address"
        }
      ],
      "stateMutability": "view",
      "type": "function",
      "constant": true
    },
    {
      "inputs": [
        {
          "internalType": "address",
          "name": "",
          "type": "address"
        },
        {
          "internalType": "uint256",
          "name": "",
          "type": "uint256"
        }
      ],
      "name": "manufacturerMedicines",
      "outputs": [
        {
          "internalType": "address",
          "name": "",
          "type": "address"
        }
      ],
      "stateMutability": "view",
      "type": "function",
      "constant": true
    },
    {
      "inputs": [
        {
          "internalType": "address",
          "name": "",
          "type": "address"
        },
        {
          "internalType": "uint256",
          "name": "",
          "type": "uint256"
        }
      ],
      "name": "manufacturerRawMaterials",
      "outputs": [
        {
          "internalType": "address",
          "name": "",
          "type": "address"
        }
      ],
      "stateMutability": "view",
      "type": "function",
      "constant": true
    },
    {
      "inputs": [
        {
          "internalType": "address",
          "name": "",
          "type": "address"
        },
        {
          "internalType": "uint256",
          "name": "",
          "type": "uint256"
        }
      ],
      "name": "supplierRawMaterials",
      "outputs": [
        {
          "internalType": "address",
          "name": "",
          "type": "address"
        }
      ],
      "stateMutability": "view",
      "type": "function",
      "constant": true
    },
    {
      "inputs": [
        {
          "internalType": "address",
          "name": "",
          "type": "address"
        }
      ],
      "name": "userInfo",
      "outputs": [
        {
          "internalType": "bytes32",
          "name": "name",
          "type": "bytes32"
        },
        {
          "internalType": "enum SupplyChain.roles",
          "name": "role",
          "type": "uint8"
        },
        {
          "internalType": "address",
          "name": "userAddr",
          "type": "address"
        }
      ],
      "stateMutability": "view",
      "type": "function",
      "constant": true
    },
    {
      "inputs": [
        {
          "internalType": "address",
          "name": "buyer",
          "type": "address"
        },
        {
          "internalType": "address",
          "name": "seller",
          "type": "address"
        },
        {
          "internalType": "address",
          "name": "packageAddr",
          "type": "address"
        },
        {
          "internalType": "bytes",
          "name": "signature",
          "type": "bytes"
        }
      ],
      "name": "requestProduct",
      "outputs": [],
      "stateMutability": "nonpayable",
      "type": "function"
    },
    {
      "inputs": [
        {
          "internalType": "address",
          "name": "buyer",
          "type": "address"
        },
        {
          "internalType": "address",
          "name": "seller",
          "type": "address"
        },
        {
          "internalType": "address",
          "name": "packageAddr",
          "type": "address"
        },
        {
          "internalType": "bytes",
          "name": "signature",
          "type": "bytes"
        }
      ],
      "name": "respondToEntity",
      "outputs": [],
      "stateMutability": "nonpayable",
      "type": "function"
    },
    {
      "inputs": [
        {
          "internalType": "address",
          "name": "buyer",
          "type": "address"
        },
        {
          "internalType": "address",
          "name": "seller",
          "type": "address"
        },
        {
          "internalType": "address",
          "name": "packageAddr",
          "type": "address"
        },
        {
          "internalType": "bytes",
          "name": "signature",
          "type": "bytes"
        }
      ],
      "name": "sendPackageToEntity",
      "outputs": [],
      "stateMutability": "nonpayable",
      "type": "function"
    },
    {
      "inputs": [
        {
          "internalType": "bytes32",
          "name": "name",
          "type": "bytes32"
        },
        {
          "internalType": "string[]",
          "name": "loc",
          "type": "string[]"
        },
        {
          "internalType": "uint256",
          "name": "role",
          "type": "uint256"
        },
        {
          "internalType": "address",
          "name": "_userAddr",
          "type": "address"
        }
      ],
      "name": "registerUser",
      "outputs": [],
      "stateMutability": "nonpayable",
      "type": "function"
    },
    {
      "inputs": [
        {
          "internalType": "uint256",
          "name": "_role",
          "type": "uint256"
        },
        {
          "internalType": "address",
          "name": "_addr",
          "type": "address"
        }
      ],
      "name": "changeUserRole",
      "outputs": [
        {
          "internalType": "string",
          "name": "",
          "type": "string"
        }
      ],
      "stateMutability": "nonpayable",
      "type": "function"
    },
    {
      "inputs": [
        {
          "internalType": "address",
          "name": "_address",
          "type": "address"
        }
      ],
      "name": "getUserInfo",
      "outputs": [
        {
          "components": [
            {
              "internalType": "bytes32",
              "name": "name",
              "type": "bytes32"
            },
            {
              "internalType": "string[]",
              "name": "userLoc",
              "type": "string[]"
            },
            {
              "internalType": "enum SupplyChain.roles",
              "name": "role",
              "type": "uint8"
            },
            {
              "internalType": "address",
              "name": "userAddr",
              "type": "address"
            }
          ],
          "internalType": "struct SupplyChain.userData",
          "name": "",
          "type": "tuple"
        }
      ],
      "stateMutability": "view",
      "type": "function",
      "constant": true
    },
    {
      "inputs": [
        {
          "internalType": "bytes32",
          "name": "_description",
          "type": "bytes32"
        },
        {
          "internalType": "uint256",
          "name": "_quantity",
          "type": "uint256"
        },
        {
          "internalType": "address",
          "name": "_transporterAddr",
          "type": "address"
        },
        {
          "internalType": "address",
          "name": "_manufacturerAddr",
          "type": "address"
        }
      ],
      "name": "createRawMaterialPackage",
      "outputs": [
        {
          "internalType": "address",
          "name": "",
          "type": "address"
        }
      ],
      "stateMutability": "nonpayable",
      "type": "function"
    },
    {
      "inputs": [],
      "name": "getNoOfPackagesOfSupplier",
      "outputs": [
        {
          "internalType": "uint256",
          "name": "",
          "type": "uint256"
        }
      ],
      "stateMutability": "view",
      "type": "function",
      "constant": true
    },
    {
      "inputs": [],
      "name": "getAllPackages",
      "outputs": [
        {
          "internalType": "address[]",
          "name": "",
          "type": "address[]"
        }
      ],
      "stateMutability": "view",
      "type": "function",
      "constant": true
    },
    {
      "inputs": [
        {
          "internalType": "address",
          "name": "_addr",
          "type": "address"
        },
        {
          "internalType": "uint256",
          "name": "transportertype",
          "type": "uint256"
        },
        {
          "internalType": "address",
          "name": "cid",
          "type": "address"
        }
      ],
      "name": "transporterHandlePackage",
      "outputs": [],
      "stateMutability": "nonpayable",
      "type": "function"
    },
    {
      "inputs": [
        {
          "internalType": "address",
          "name": "_addr",
          "type": "address"
        },
        {
          "internalType": "address",
          "name": "_manufacturerAddress",
          "type": "address"
        },
        {
          "internalType": "address",
          "name": "_sellerAddr",
          "type": "address"
        },
        {
          "internalType": "bytes",
          "name": "signature",
          "type": "bytes"
        }
      ],
      "name": "manufacturerReceivedPackage",
      "outputs": [],
      "stateMutability": "nonpayable",
      "type": "function"
    },
    {
      "inputs": [],
      "name": "getAllRawMaterials",
      "outputs": [
        {
          "internalType": "address[]",
          "name": "",
          "type": "address[]"
        }
      ],
      "stateMutability": "view",
      "type": "function",
      "constant": true
    },
    {
      "inputs": [
        {
          "internalType": "address",
          "name": "_manufacturerAddr",
          "type": "address"
        },
        {
          "internalType": "bytes32",
          "name": "_description",
          "type": "bytes32"
        },
        {
          "internalType": "address[]",
          "name": "_rawAddr",
          "type": "address[]"
        },
        {
          "internalType": "uint256",
          "name": "_quantity",
          "type": "uint256"
        },
        {
          "internalType": "address[]",
          "name": "_transporterAddr",
          "type": "address[]"
        }
      ],
      "name": "manufacturerCreatesMedicine",
      "outputs": [],
      "stateMutability": "nonpayable",
      "type": "function"
    },
    {
      "inputs": [],
      "name": "getAllCreatedMedicines",
      "outputs": [
        {
          "internalType": "address[]",
          "name": "",
          "type": "address[]"
        }
      ],
      "stateMutability": "view",
      "type": "function",
      "constant": true
    },
    {
      "inputs": [
        {
          "internalType": "address",
          "name": "_address",
          "type": "address"
        },
        {
          "internalType": "address",
          "name": "_sellerAddr",
          "type": "address"
        },
        {
          "internalType": "bytes",
          "name": "signature",
          "type": "bytes"
        }
      ],
      "name": "wholesalerReceivedMedicine",
      "outputs": [],
      "stateMutability": "nonpayable",
      "type": "function"
    },
    {
      "inputs": [
        {
          "internalType": "address",
          "name": "_address",
          "type": "address"
        },
        {
          "internalType": "address",
          "name": "transporter",
          "type": "address"
        },
        {
          "internalType": "address",
          "name": "receiver",
          "type": "address"
        }
      ],
      "name": "transferMedicineWtoD",
      "outputs": [],
      "stateMutability": "nonpayable",
      "type": "function"
    },
    {
      "inputs": [
        {
          "internalType": "uint256",
          "name": "index",
          "type": "uint256"
        }
      ],
      "name": "getBatchIdByIndexWD",
      "outputs": [
        {
          "internalType": "address",
          "name": "packageID",
          "type": "address"
        }
      ],
      "stateMutability": "view",
      "type": "function",
      "constant": true
    },
    {
      "inputs": [
        {
          "internalType": "address",
          "name": "_address",
          "type": "address"
        }
      ],
      "name": "getSubContractWD",
      "outputs": [
        {
          "internalType": "address",
          "name": "SubContractWD",
          "type": "address"
        }
      ],
      "stateMutability": "view",
      "type": "function",
      "constant": true
    },
    {
      "inputs": [],
      "name": "getAllMedicinesAtWholesaler",
      "outputs": [
        {
          "internalType": "address[]",
          "name": "",
          "type": "address[]"
        }
      ],
      "stateMutability": "view",
      "type": "function",
      "constant": true
    },
    {
      "inputs": [
        {
          "internalType": "address",
          "name": "_address",
          "type": "address"
        },
        {
          "internalType": "address",
          "name": "cid",
          "type": "address"
        },
        {
          "internalType": "address",
          "name": "_sellerAddr",
          "type": "address"
        },
        {
          "internalType": "bytes",
          "name": "signature",
          "type": "bytes"
        }
      ],
      "name": "distributorReceivedMedicine",
      "outputs": [],
      "stateMutability": "nonpayable",
      "type": "function"
    },
    {
      "inputs": [
        {
          "internalType": "address",
          "name": "_address",
          "type": "address"
        },
        {
          "internalType": "address",
          "name": "transporter",
          "type": "address"
        },
        {
          "internalType": "address",
          "name": "receiver",
          "type": "address"
        }
      ],
      "name": "distributorTransferMedicinetoCustomer",
      "outputs": [],
      "stateMutability": "nonpayable",
      "type": "function"
    },
    {
      "inputs": [],
      "name": "getBatchesCountDC",
      "outputs": [
        {
          "internalType": "uint256",
          "name": "count",
          "type": "uint256"
        }
      ],
      "stateMutability": "view",
      "type": "function",
      "constant": true
    },
    {
      "inputs": [
        {
          "internalType": "uint256",
          "name": "index",
          "type": "uint256"
        }
      ],
      "name": "getBatchIdByIndexDC",
      "outputs": [
        {
          "internalType": "address",
          "name": "packageID",
          "type": "address"
        }
      ],
      "stateMutability": "view",
      "type": "function",
      "constant": true
    },
    {
      "inputs": [
        {
          "internalType": "address",
          "name": "_address",
          "type": "address"
        }
      ],
      "name": "getSubContractDC",
      "outputs": [
        {
          "internalType": "address",
          "name": "SubContractDP",
          "type": "address"
        }
      ],
      "stateMutability": "view",
      "type": "function",
      "constant": true
    },
    {
      "inputs": [],
      "name": "getAllMedicinesAtDistributor",
      "outputs": [
        {
          "internalType": "address[]",
          "name": "",
          "type": "address[]"
        }
      ],
      "stateMutability": "view",
      "type": "function",
      "constant": true
    },
    {
      "inputs": [
        {
          "internalType": "address",
          "name": "p",
          "type": "address"
        },
        {
          "internalType": "bytes32",
          "name": "hash",
          "type": "bytes32"
        },
        {
          "internalType": "uint8",
          "name": "v",
          "type": "uint8"
        },
        {
          "internalType": "bytes32",
          "name": "r",
          "type": "bytes32"
        },
        {
          "internalType": "bytes32",
          "name": "s",
          "type": "bytes32"
        }
      ],
      "name": "verify",
      "outputs": [
        {
          "internalType": "bool",
          "name": "",
          "type": "bool"
        }
      ],
      "stateMutability": "pure",
      "type": "function",
      "constant": true
    }
  ],
  "bytecode": "0x608060405234801561001057600080fd5b50600080546001600160a01b03191633179055615ba6806100326000396000f3fe60806040523480156200001157600080fd5b5060043610620002085760003560e01c806391009786116200011d578063cd55152e11620000ab578063cd55152e14620004bc578063d06f7b5514620004c6578063e0cf92fe14620004dd578063e3938b7014620004f4578063f06822d814620004fe578063fac0992d1462000515578063fc7e01f3146200051f578063fd302c351462000536578063ff2b065a146200054d5762000208565b80639100978614620003e957806396598038146200040f5780639af035a31462000426578063a205a123146200043d578063a999cca11462000447578063b0fc028d146200045e578063b8b16ca31462000475578063be7ef9c0146200048c578063c22470ea14620004a35762000208565b8063381cb0dc116200019b578063381cb0dc14620002fc578063412afbaf1462000313578063506535f3146200032a57806362c1fe3914620003505780636386c1c71462000367578063798a826f146200038d5780637a0689f014620003a45780638ccc8db714620003bb5780638dfa742d14620003d25762000208565b8063050e70db146200020d57806306db8324146200023c5780630a421f0f1462000253578063164bcd5b146200026c5780631959a00214620002835780631f90ddaf14620002ab57806327ddcd2514620002c45780633475901614620002db5780633668669a14620002f2575b600080fd5b620002246200021e36600462001f7c565b62000564565b6040516200023391906200229c565b60405180910390f35b620002246200024d36600462001f7c565b6200059a565b6200025d620005b4565b604051620002339190620023b5565b620002246200027d36600462002182565b62000689565b6200029a6200029436600462001d39565b6200070f565b6040516200023393929190620023de565b620002c2620002bc36600462002077565b6200073b565b005b620002c2620002d536600462001e93565b62000840565b62000224620002ec36600462001d39565b620008c7565b6200025d620008e5565b620002c26200030d36600462001e2c565b620009b2565b620002246200032436600462001f7c565b62000aee565b620003416200033b36600462001f22565b62000b08565b604051620002339190620023ca565b620002246200036136600462001d39565b62000b7b565b6200037e6200037836600462001d39565b62000b99565b604051620002339190620025fe565b620002246200039e36600462001d39565b62000cee565b620002c2620003b536600462001db0565b62000d09565b62000224620003cc36600462001f7c565b62000fd0565b62000224620003e336600462001f7c565b62000fea565b62000400620003fa3660046200219b565b62001004565b6040516200023391906200242d565b620002c26200042036600462001db0565b62001093565b620002246200043736600462002182565b6200115e565b6200025d620011c0565b620002246200045836600462001f7c565b6200128d565b620002246200046f36600462001d39565b620012a7565b620002c26200048636600462001db0565b620012c2565b620002c26200049d36600462001faa565b62001302565b620004ad620014c1565b604051620002339190620023d5565b620004ad620014d4565b620002c2620004d736600462001db0565b6200152e565b620002c2620004ee36600462001db0565b6200156e565b6200025d620015ae565b620002c26200050f36600462001d5f565b6200167b565b6200025d62001716565b620002246200053036600462002134565b620017e3565b620002246200054736600462001f7c565b620018e3565b620002c26200055e36600462001d5f565b620018fd565b600660205281600052604060002081815481106200057e57fe5b6000918252602090912001546001600160a01b03169150829050565b600260205281600052604060002081815481106200057e57fe5b3360009081526002602052604090205460609081816001600160401b0381118015620005df57600080fd5b506040519080825280602002602001820160405280156200060a578160200160208202803683370190505b50905060005b8281101562000681573360009081526002602052604090208054829081106200063557fe5b9060005260206000200160009054906101000a90046001600160a01b03168282815181106200066057fe5b6001600160a01b039092166020928302919091019091015260010162000610565b509150505b90565b600060053360009081526001602052604090206002015460ff166006811115620006af57fe5b14620006d85760405162461bcd60e51b8152600401620006cf90620024ab565b60405180910390fd5b336000908152600960205260409020805483908110620006f457fe5b6000918252602090912001546001600160a01b031692915050565b6001602052600090815260409020805460029091015460ff81169061010090046001600160a01b031683565b6000546001600160a01b031633146200075357600080fd5b6001600160a01b03811660009081526001602081815260409092208681558551620007879391909201919086019062001a69565b508160068111156200079557fe5b6001600160a01b03821660009081526001602081905260409091206002018054909160ff1990911690836006811115620007cb57fe5b02179055506001600160a01b038116600081815260016020526040908190206002018054610100600160a81b0319166101008402179055517f33a7170f028b1e4f5ba321064a00ed820856a920c7f9c6636fbcf385427b1b0f9062000832908790620023d5565b60405180910390a250505050565b60008585858585604051620008559062001acd565b6200086595949392919062002366565b604051809103906000f08015801562000882573d6000803e3d6000fd5b506001600160a01b0396871660009081526004602090815260408220805460018101825590835291200180546001600160a01b03191691909716179095555050505050565b6001600160a01b039081166000908152600760205260409020541690565b3360009081526005602052604090205460609081816001600160401b03811180156200091057600080fd5b506040519080825280602002602001820160405280156200093b578160200160208202803683370190505b50905060005b8281101562000681573360009081526005602052604090208054829081106200096657fe5b9060005260206000200160009054906101000a90046001600160a01b03168282815181106200099157fe5b6001600160a01b039092166020928302919091019091015260010162000941565b60043360009081526001602052604090206002015460ff166006811115620009d657fe5b14620009f65760405162461bcd60e51b8152600401620006cf90620024f3565b6040516307fb74db60e21b81526000906001600160a01b03851690631fedd36c9062000a279033906004016200229c565b602060405180830381600087803b15801562000a4257600080fd5b505af115801562000a57573d6000803e3d6000fd5b505050506040513d601f19601f8201168201806040525081019062000a7d91906200205e565b3360008181526005602090815260408083208054600181018255908452919092200180546001600160a01b0319166001600160a01b03891617905551919250429160008051602062005b518339815191529062000ae0908790899088906200232f565b60405180910390a350505050565b600560205281600052604060002081815481106200057e57fe5b6000856001600160a01b03166001868686866040516000815260200160405260405162000b3994939291906200240f565b6020604051602081039080840390855afa15801562000b5c573d6000803e3d6000fd5b505050602060405103516001600160a01b031614905095945050505050565b6001600160a01b039081166000908152600a60205260409020541690565b62000ba362001adb565b6001600160a01b0382166000908152600160208181526040808420815160808101835281548152938101805483518186028101860190945280845294959194868501949192909184015b8282101562000c9e5760008481526020908190208301805460408051601f600260001961010060018716150201909416939093049283018590048502810185019091528181529283018282801562000c895780601f1062000c5d5761010080835404028352916020019162000c89565b820191906000526020600020905b81548152906001019060200180831162000c6b57829003601f168201915b50505050508152602001906001019062000bed565b50505090825250600282015460209091019060ff16600681111562000cbf57fe5b600681111562000ccb57fe5b81526002919091015461010090046001600160a01b031660209091015292915050565b600a602052600090815260409020546001600160a01b031681565b60053360009081526001602052604090206002015460ff16600681111562000d2d57fe5b14801562000dbb5750836001600160a01b031663abb428a66040518163ffffffff1660e01b815260040160606040518083038186803b15801562000d7057600080fd5b505afa15801562000d85573d6000803e3d6000fd5b505050506040513d601f19601f8201168201806040525081019062000dab919062001fe5565b602001516001600160a01b031633145b62000dda5760405162461bcd60e51b8152600401620006cf9062002442565b6040516307fb74db60e21b81526000906001600160a01b03861690631fedd36c9062000e0b9033906004016200229c565b602060405180830381600087803b15801562000e2657600080fd5b505af115801562000e3b573d6000803e3d6000fd5b505050506040513d601f19601f8201168201806040525081019062000e6191906200205e565b9050806002141562000f9257336000908152600860209081526040808320805460018101825590845291832090910180546001600160a01b0319166001600160a01b03891690811790915581516355da145360e11b81529151909163abb428a6916004808301926060929190829003018186803b15801562000ee257600080fd5b505afa15801562000ef7573d6000803e3d6000fd5b505050506040513d601f19601f8201168201806040525081019062000f1d919062001fe5565b516001600160a01b03161462000f925760405163d7dcbe3b60e01b81526001600160a01b0385169063d7dcbe3b9062000f5d9088903390600401620022ea565b600060405180830381600087803b15801562000f7857600080fd5b505af115801562000f8d573d6000803e3d6000fd5b505050505b42336001600160a01b031660008051602062005b5183398151915285888660405162000fc1939291906200232f565b60405180910390a35050505050565b600360205281600052604060002081815481106200057e57fe5b600860205281600052604060002081815481106200057e57fe5b6000546060906001600160a01b031633146200101f57600080fd5b8260068111156200102c57fe5b6001600160a01b03831660009081526001602081905260409091206002018054909160ff19909116908360068111156200106257fe5b02179055505060408051808201909152600d81526c526f6c6520557064617465642160981b60208201525b92915050565b604051630a57332d60e31b81526001600160a01b038516906352b9996890620010c19086906004016200229c565b600060405180830381600087803b158015620010dc57600080fd5b505af1158015620010f1573d6000803e3d6000fd5b505050506001600160a01b0383811660009081526003602090815260408083208054600181018255908452919092200180546001600160a01b03191692871692909217909155514290339060008051602062005b518339815191529062000ae0908690899087906200232f565b600060043360009081526001602052604090206002015460ff1660068111156200118457fe5b14620011a45760405162461bcd60e51b8152600401620006cf9062002539565b336000908152600660205260409020805483908110620006f457fe5b3360009081526004602052604090205460609081816001600160401b0381118015620011eb57600080fd5b5060405190808252806020026020018201604052801562001216578160200160208202803683370190505b50905060005b8281101562000681573360009081526004602052604090208054829081106200124157fe5b9060005260206000200160009054906101000a90046001600160a01b03168282815181106200126c57fe5b6001600160a01b03909216602092830291909101909101526001016200121c565b600460205281600052604060002081815481106200057e57fe5b6007602052600090815260409020546001600160a01b031681565b42836001600160a01b03167f22561ca0666e99052dd8231a6c5c337204ed5658c357aa6afcd53c207acfac6786858560405162000ae0939291906200232f565b60023360009081526001602052604090206002015460ff1660068111156200132657fe5b14620013465760405162461bcd60e51b8152600401620006cf9062002580565b60008211620013695760405162461bcd60e51b8152600401620006cf90620025c7565b8160011415620013db5760405163638e9a3d60e01b81526001600160a01b0384169063638e9a3d90620013a19033906004016200229c565b600060405180830381600087803b158015620013bc57600080fd5b505af1158015620013d1573d6000803e3d6000fd5b50505050620014bc565b8160021415620014135760405163ac42a41560e01b81526001600160a01b0384169063ac42a41590620013a19033906004016200229c565b81600314156200144d57604051630887851b60e31b81526001600160a01b0382169063443c28d890620013a19086903390600401620022ea565b8160041415620014bc5760405163298abd8d60e11b81526001600160a01b038216906353157b1a90620014879086903390600401620022ea565b600060405180830381600087803b158015620014a257600080fd5b505af1158015620014b7573d6000803e3d6000fd5b505050505b505050565b3360009081526002602052604090205490565b600060053360009081526001602052604090206002015460ff166006811115620014fa57fe5b146200151a5760405162461bcd60e51b8152600401620006cf90620024ab565b503360009081526009602052604090205490565b42826001600160a01b03167f31f87de04fd141167b8131be7a8ccb2bac63361a15671c96d90c39ddc9ef909d85878560405162000ae0939291906200232f565b42846001600160a01b03167f9151271dfe612a18bf915ee1609e6f94f62fd775c704a0ae2ef091519f0c9b3985858560405162000ae0939291906200232f565b3360009081526008602052604090205460609081816001600160401b0381118015620015d957600080fd5b5060405190808252806020026020018201604052801562001604578160200160208202803683370190505b50905060005b8281101562000681573360009081526008602052604090208054829081106200162f57fe5b9060005260206000200160009054906101000a90046001600160a01b03168282815181106200165a57fe5b6001600160a01b03909216602092830291909101909101526001016200160a565b6000833384846040516200168f9062001b03565b6200169e949392919062002304565b604051809103906000f080158015620016bb573d6000803e3d6000fd5b5033600090815260066020908152604080832080546001810182559084528284200180546001600160a01b039586166001600160a01b0319918216811790925598909416835260079091529020805490951617909355505050565b3360009081526003602052604090205460609081816001600160401b03811180156200174157600080fd5b506040519080825280602002602001820160405280156200176c578160200160208202803683370190505b50905060005b8281101562000681573360009081526003602052604090208054829081106200179757fe5b9060005260206000200160009054906101000a90046001600160a01b0316828281518110620017c257fe5b6001600160a01b039092166020928302919091019091015260010162001772565b6000803360023342604051602001620017fe9291906200225c565b60408051601f19818403018152908290526200181a916200227e565b602060405180830381855afa15801562001838573d6000803e3d6000fd5b5050506040513d601f19601f820116820180604052508101906200185d91906200205e565b60601c87878787604051620018729062001b11565b6200188396959493929190620022b0565b604051809103906000f080158015620018a0573d6000803e3d6000fd5b503360009081526002602090815260408220805460018101825590835291200180546001600160a01b0319166001600160a01b0383161790559695505050505050565b600960205281600052604060002081815481106200057e57fe5b60053360009081526001602052604090206002015460ff1660068111156200192157fe5b148015620019af5750826001600160a01b031663abb428a66040518163ffffffff1660e01b815260040160606040518083038186803b1580156200196457600080fd5b505afa15801562001979573d6000803e3d6000fd5b505050506040513d601f19601f820116820180604052508101906200199f919062001fe5565b602001516001600160a01b031633145b620019ce5760405162461bcd60e51b8152600401620006cf9062002442565b600083338484604051620019e29062001b1f565b620019f1949392919062002304565b604051809103906000f08015801562001a0e573d6000803e3d6000fd5b5033600090815260096020908152604080832080546001810182559084528284200180546001600160a01b039586166001600160a01b03199182168117909255989094168352600a9091529020805490951617909355505050565b82805482825590600052602060002090810192821562001abb579160200282015b8281111562001abb578251805162001aaa91849160209091019062001b2d565b509160200191906001019062001a8a565b5062001ac992915062001bae565b5090565b611ad9806200273c83390190565b6040805160808101825260008082526060602083015290918201908152600060209091015290565b6103b8806200421583390190565b6111c880620045cd83390190565b6103bc806200579583390190565b828054600181600116156101000203166002900490600052602060002090601f016020900481019282601f1062001b7057805160ff191683800117855562001ba0565b8280016001018555821562001ba0579182015b8281111562001ba057825182559160200191906001019062001b83565b5062001ac992915062001bd6565b6200068691905b8082111562001ac957600062001bcc828262001bf3565b5060010162001bb5565b6200068691905b8082111562001ac9576000815560010162001bdd565b50805460018160011615610100020316600290046000825580601f1062001c1b575062001c3b565b601f01602090049060005260206000209081019062001c3b919062001bd6565b50565b80356200108d8162002725565b600082601f83011262001c5c578081fd5b813562001c7362001c6d82620026c7565b620026a0565b81815291506020808301908481018184028601820187101562001c9557600080fd5b60005b8481101562001cc157813562001cae8162002725565b8452928201929082019060010162001c98565b505050505092915050565b600082601f83011262001cdd578081fd5b81356001600160401b0381111562001cf3578182fd5b62001d08601f8201601f1916602001620026a0565b915080825283602082850101111562001d2057600080fd5b8060208401602084013760009082016020015292915050565b60006020828403121562001d4b578081fd5b813562001d588162002725565b9392505050565b60008060006060848603121562001d74578182fd5b833562001d818162002725565b9250602084013562001d938162002725565b9150604084013562001da58162002725565b809150509250925092565b6000806000806080858703121562001dc6578081fd5b843562001dd38162002725565b9350602085013562001de58162002725565b9250604085013562001df78162002725565b915060608501356001600160401b0381111562001e12578182fd5b62001e208782880162001ccc565b91505092959194509250565b60008060006060848603121562001e41578283fd5b833562001e4e8162002725565b9250602084013562001e608162002725565b915060408401356001600160401b0381111562001e7b578182fd5b62001e898682870162001ccc565b9150509250925092565b600080600080600060a0868803121562001eab578081fd5b853562001eb88162002725565b94506020860135935060408601356001600160401b038082111562001edb578283fd5b62001ee989838a0162001c4b565b945060608801359350608088013591508082111562001f06578283fd5b5062001f158882890162001c4b565b9150509295509295909350565b600080600080600060a0868803121562001f3a578081fd5b853562001f478162002725565b945060208601359350604086013560ff8116811462001f64578182fd5b94979396509394606081013594506080013592915050565b6000806040838503121562001f8f578182fd5b823562001f9c8162002725565b946020939093013593505050565b60008060006060848603121562001fbf578081fd5b833562001fcc8162002725565b925060208401359150604084013562001da58162002725565b60006060828403121562001ff7578081fd5b82601f83011262002006578081fd5b620020126060620026a0565b80838560608601111562002024578384fd5b835b6003811015620020535781516200203d8162002725565b8452602093840193919091019060010162002026565b509095945050505050565b60006020828403121562002070578081fd5b5051919050565b600080600080608085870312156200208d578182fd5b843593506020808601356001600160401b03811115620020ab578384fd5b80870188601f820112620020bd578485fd5b80359150620020d062001c6d83620026c7565b82815283810190828501875b858110156200210957620020f68d88843588010162001ccc565b84529286019290860190600101620020dc565b505080975050505050506040850135915062002129866060870162001c3e565b905092959194509250565b600080600080608085870312156200214a578182fd5b84359350602085013592506040850135620021658162002725565b91506060850135620021778162002725565b939692955090935050565b60006020828403121562002194578081fd5b5035919050565b60008060408385031215620021ae578182fd5b823591506020830135620021c28162002725565b809150509250929050565b6001600160a01b03169052565b6000815180845260208085019450808401835b83811015620022145781516001600160a01b031687529582019590820190600101620021ed565b509495945050505050565b6000815180845262002239816020860160208601620026e7565b601f01601f19169290920160200192915050565b62002258816200271a565b9052565b60609290921b6bffffffffffffffffffffffff19168252601482015260340190565b6000825162002292818460208701620026e7565b9190910192915050565b6001600160a01b0391909116815260200190565b6001600160a01b0396871681529486166020860152604085019390935260608401919091528316608083015290911660a082015260c00190565b6001600160a01b0392831681529116602082015260400190565b6001600160a01b03948516815292841660208401529083166040830152909116606082015260800190565b6001600160a01b038481168252831660208201526060604082018190526000906200235d908301846200221f565b95945050505050565b600060018060a01b038716825285602083015260a060408301526200238f60a0830186620021da565b8460608401528281036080840152620023a98185620021da565b98975050505050505050565b60006020825262001d586020830184620021da565b901515815260200190565b90815260200190565b83815260608101620023f0846200271a565b60208201939093526001600160a01b0391909116604090910152919050565b93845260ff9290921660208401526040830152606082015260800190565b60006020825262001d5860208301846200221f565b60208082526043908201527f4f6e6c79204469737472696275746f72206f722063757272656e74206f776e6560408201527f72206f66207061636b6167652063616e2063616c6c20746869732066756e637460608201526234b7b760e91b608082015260a00190565b60208082526028908201527f4f6e6c79204469737472696275746f722043616e2063616c6c207468697320666040820152673ab731ba34b7b71760c11b606082015260800190565b60208082526026908201527f4f6e6c792057686f6c6573616c65722063616e2063616c6c20746869732066756040820152653731ba34b7b760d11b606082015260800190565b60208082526027908201527f4f6e6c792057686f6c6573616c65722043616e2063616c6c20746869732066756040820152663731ba34b7b71760c91b606082015260800190565b60208082526027908201527f4f6e6c79205472616e73706f727465722063616e2063616c6c207468697320666040820152663ab731ba34b7b760c91b606082015260800190565b6020808252601d908201527f5472616e73706f72746572205479706520697320696e636f7272656374000000604082015260600190565b60208082528251828201528281015160806040840152805160a084018190526000929160c0828402860181019285929187019185015b81841015620026685760bf19888603018352620026538582516200221f565b94506001939093019291850191850162002634565b50505050604085015191506200268260608501836200224d565b60608501519150620026986080850183620021cd565b949350505050565b6040518181016001600160401b0381118282101715620026bf57600080fd5b604052919050565b60006001600160401b03821115620026dd578081fd5b5060209081020190565b60005b8381101562002704578181015183820152602001620026ea565b8381111562002714576000848401525b50505050565b6007811062001c3b57fe5b6001600160a01b038116811462001c3b57600080fdfe60806040523480156200001157600080fd5b5060405162001ad938038062001ad9833981810160405260a08110156200003757600080fd5b815160208301516040808501805191519395929483019291846401000000008211156200006357600080fd5b9083019060208201858111156200007957600080fd5b82518660208202830111640100000000821117156200009757600080fd5b82525081516020918201928201910280838360005b83811015620000c6578181015183820152602001620000ac565b505050509050016040526020018051906020019092919080516040519392919084640100000000821115620000fa57600080fd5b9083019060208201858111156200011057600080fd5b82518660208202830111640100000000821117156200012e57600080fd5b82525081516020918201928201910280838360005b838110156200015d57818101518382015260200162000143565b50505050919091016040525050600080546001600160a01b0389166001600160a01b03199182168117909255600480549091169091179055505060018490558251620001b190600290602086019062000268565b5060088290558051620001cc90600390602084019062000268565b50600580546001600160a01b03199081169091556006805490911690556009805460ff1916905560405160009086906200020690620002d2565b6001600160a01b03909116815260405190819003602001906000f08015801562000234573d6000803e3d6000fd5b50600980546001600160a01b0390921661010002610100600160a81b0319909216919091179055506200030a945050505050565b828054828255906000526020600020908101928215620002c0579160200282015b82811115620002c057825182546001600160a01b0319166001600160a01b0390911617825560209092019160019091019062000289565b50620002ce929150620002e0565b5090565b610b638062000f7683390190565b6200030791905b80821115620002ce5780546001600160a01b0319168155600101620002e7565b90565b610c5c806200031a6000396000f3fe608060405234801561001057600080fd5b50600436106100bf5760003560e01c8063abb428a61161007c578063abb428a6146101a6578063ac42a415146101e6578063c8f5f1891461020c578063d2f3fcc714610232578063e002c8a51461023a578063e138d4ce14610354578063f5c0e3831461037a576100bf565b806317fc45e2146100c45780631fedd36c146100de5780632f1d75881461010457806393a668b71461013457806396991e791461015a578063aab3a9d614610180575b600080fd5b6100cc6103a8565b60408051918252519081900360200190f35b6100cc600480360360208110156100f457600080fd5b50356001600160a01b03166103ae565b6101326004803603604081101561011a57600080fd5b506001600160a01b03813581169160200135166105d9565b005b6101326004803603602081101561014a57600080fd5b50356001600160a01b0316610662565b6101326004803603602081101561017057600080fd5b50356001600160a01b03166106cf565b6101326004803603602081101561019657600080fd5b50356001600160a01b03166106f1565b6101ae610743565b6040518082606080838360005b838110156101d35781810151838201526020016101bb565b5050505090500191505060405180910390f35b610132600480360360208110156101fc57600080fd5b50356001600160a01b031661077e565b6101326004803603602081101561022257600080fd5b50356001600160a01b03166108ff565b6100cc610968565b610242610981565b604051808a6001600160a01b03166001600160a01b031681526020018981526020018060200188815260200180602001876001600160a01b03166001600160a01b03168152602001868152602001856001600160a01b03166001600160a01b03168152602001846001600160a01b03166001600160a01b0316815260200183810383528a818151815260200191508051906020019060200280838360005b838110156102f85781810151838201526020016102e0565b50505050905001838103825288818151815260200191508051906020019060200280838360005b8381101561033757818101518382015260200161031f565b505050509050019b50505050505050505050505060405180910390f35b6101326004803603602081101561036a57600080fd5b50356001600160a01b0316610ab7565b6101326004803603604081101561039057600080fd5b506001600160a01b0381358116916020013516610ad9565b60085481565b6005546000906001600160a01b03838116911614806103da57506006546001600160a01b038381169116145b6104155760405162461bcd60e51b8152600401808060200182810382526035815260200180610b866035913960400191505060405180910390fd5b60095460019060ff16600681111561042957fe5b1015610478576040805162461bcd60e51b8152602060048201526019602482015278141c9bd91d58dd081b9bdd081c1a58dad959081d5c081e595d603a1b604482015290519081900360640190fd5b6005546001600160a01b0383811691161480156104a55750600160095460ff1660068111156104a357fe5b145b15610529576009805460ff1916600390811790915560055481546001600160a01b03909116919060001981019081106104da57fe5b60009182526020918290200154604080516002815260039381019390935280516001600160a01b03909216923092600080516020610b66833981519152929181900390910190a45060016105d4565b6006546001600160a01b0383811691161480156105565750600260095460ff16600681111561055457fe5b145b156105d4576009805460ff19166004179055600654600380546001600160a01b0390921691600019810190811061058957fe5b60009182526020918290200154604080516003815260049381019390935280516001600160a01b03909216923092600080516020610b66833981519152929181900390910190a45060025b919050565b6006546001600160a01b038281169116146106255760405162461bcd60e51b8152600401808060200182810382526023815260200180610bdd6023913960400191505060405180910390fd5b600780546001600160a01b0319166001600160a01b03841617905560055b6009805460ff1916600183600681111561065957fe5b02179055505050565b6006546001600160a01b038281169116146106ae5760405162461bcd60e51b8152600401808060200182810382526023815260200180610bdd6023913960400191505060405180910390fd5b60045b6009805460ff191660018360068111156106c757fe5b021790555050565b600680546001600160a01b0319166001600160a01b0392909216919091179055565b600380546001810182556000919091527fc2575a0e9e593c00f959f8c92f12db2869c3395a3b0502d05e2516446f71f85b0180546001600160a01b0319166001600160a01b0392909216919091179055565b61074b610b47565b50604080516060810182526005546001600160a01b03908116825260065481166020830152600754169181019190915290565b60038054600019810190811061079057fe5b6000918252602090912001546001600160a01b038281169116146107e55760405162461bcd60e51b8152600401808060200182810382526027815260200180610c006027913960400191505060405180910390fd5b600060095460ff1660068111156107f857fe5b1461084a576040805162461bcd60e51b815260206004820181905260248201527f5061636b616765206d757374206265206174204d616e7566616374757265722e604482015290519081900360640190fd5b6005546001600160a01b0316156108ad576009805460ff1916600190811790915560055460408051838152602081019390935280516001600160a01b0392831693928516923092600080516020610b6683398151915292918290030190a46108fc565b6009805460ff191660029081179091556006546040805160018152602081019390935280516001600160a01b0392831693928516923092600080516020610b6683398151915292918290030190a45b50565b6007546001600160a01b03828116911614610961576040805162461bcd60e51b815260206004820181905260248201527f5468697320437573746f6d6572206973206e6f74204173736f6369617465642e604482015290519081900360640190fd5b60066106b1565b60095460009060ff16600681111561097c57fe5b905090565b6004546001546008546006805460095460009586956060958795879587958695869586956001600160a01b03928316959194600294919360039391169160ff16908111156109cb57fe5b6009546005548654604080516020808402820181019092528281526101009094046001600160a01b0390811694931692918991830182828015610a3757602002820191906000526020600020905b81546001600160a01b03168152600190910190602001808311610a19575b5050505050965084805480602002602001604051908101604052809291908181526020018280548015610a9357602002820191906000526020600020905b81546001600160a01b03168152600190910190602001808311610a75575b50505050509450985098509850985098509850985098509850909192939495969798565b600580546001600160a01b0319166001600160a01b0392909216919091179055565b6005546001600160a01b03828116911614610b255760405162461bcd60e51b8152600401808060200182810382526022815260200180610bbb6022913960400191505060405180910390fd5b600680546001600160a01b0319166001600160a01b0384161790556002610643565b6040518060600160405280600390602082028036833750919291505056fe7e89c4b1a4e2b51aae84eb1f90e8a34cb792ece5ac5cb63db4830c891220b28d4f6e6c792057686f6c6573616c6572206f72204469737472696275746f722063616e2063616c6c20746869732066756e6374696f6e746869732057686f6c6573616c6572206973206e6f74204173736f6369617465642e54686973204469737472696275746f72206973206e6f74204173736f6369617465642e4f6e6c79205472616e73706f727465722063616e2063616c6c20746869732066756e6374696f6ea264697066735822122027aef9c36a92b1b8793250807af9103575d050e874fce84e0583bcc59dec9e6b64736f6c634300060600336080604052600060025534801561001557600080fd5b50604051610b63380380610b6383398101604081905261003491610059565b600080546001600160a01b0319166001600160a01b0392909216919091179055610087565b60006020828403121561006a578081fd5b81516001600160a01b0381168114610080578182fd5b9392505050565b610acd806100966000396000f3fe608060405234801561001057600080fd5b506004361061004c5760003560e01c806327506f53146100515780633626a3681461006f57806378ce1365146100845780639ace38c214610099575b600080fd5b6100596100bf565b60405161006691906108b6565b60405180910390f35b61008261007d3660046107bb565b6102c7565b005b61008c61050b565b6040516100669190610a76565b6100ac6100a7366004610853565b610511565b604051610066979695949392919061097f565b600254606090818167ffffffffffffffff811180156100dd57600080fd5b5060405190808252806020026020018201604052801561011757816020015b61010461066a565b8152602001906001900390816100fc5790505b50905060005b828110156102bf57600081815260016020818152604092839020835160e08101855281548152818401546001600160a01b0390811682850152600280840154909116828701526003830154606083015260048301805487516101009782161597909702600019011691909104601f81018590048502860185019096528585529094919360808601939092908301828280156101f95780601f106101ce576101008083540402835291602001916101f9565b820191906000526020600020905b8154815290600101906020018083116101dc57829003601f168201915b505050918352505060058201805460408051602060026001851615610100026000190190941693909304601f810184900484028201840190925281815293820193929183018282801561028d5780601f106102625761010080835404028352916020019161028d565b820191906000526020600020905b81548152906001019060200180831161027057829003601f168201915b505050505081526020016006820154815250508282815181106102ac57fe5b602090810291909101015260010161011d565b509150505b90565b60025442906103a6576040805160e0810182528881526001600160a01b038089166020808401918252898316848601908152606085018a8152608086018a815260a087018a905260c08701899052600280546000908152600180875299902088518155955198860180549988166001600160a01b03199a8b1617905592519285018054939096169290971691909117909355915160038201559251805192939261037792600485019201906106a5565b5060a082015180516103939160058401916020909101906106a5565b5060c082015181600601559050506104b5565b6002546000190160009081526001602052604090205484146103e35760405162461bcd60e51b81526004016103da90610a3f565b60405180910390fd5b6040805160e0810182528881526001600160a01b038089166020808401918252898316848601908152606085018a8152608086018a815260a087018a905260c08701899052600280546000908152600180875299902088518155955198860180549988166001600160a01b03199a8b1617905592519285018054939096169290971691909117909355915160038201559251805192939261048a92600485019201906106a5565b5060a082015180516104a69160058401916020909101906106a5565b5060c082015181600601559050505b6002805460010190556040517f30d01d358fb0899fe4d50947b2e9301c952d9eed09b14c7ecdcbeed4434557c4906104fa90899089908990899087908a908a906109df565b60405180910390a150505050505050565b60025481565b60016020818152600092835260409283902080548184015460028084015460038501546004860180548a516101009a8216159a909a02600019011693909304601f810188900488028901880190995288885293976001600160a01b039384169793909116959394938301828280156105ca5780601f1061059f576101008083540402835291602001916105ca565b820191906000526020600020905b8154815290600101906020018083116105ad57829003601f168201915b5050505060058301805460408051602060026001851615610100026000190190941693909304601f810184900484028201840190925281815294959493509083018282801561065a5780601f1061062f5761010080835404028352916020019161065a565b820191906000526020600020905b81548152906001019060200180831161063d57829003601f168201915b5050505050908060060154905087565b6040805160e08101825260008082526020820181905291810182905260608082018390526080820181905260a082015260c081019190915290565b828054600181600116156101000203166002900490600052602060002090601f016020900481019282601f106106e657805160ff1916838001178555610713565b82800160010185558215610713579182015b828111156107135782518255916020019190600101906106f8565b5061071f929150610723565b5090565b6102c491905b8082111561071f5760008155600101610729565b600082601f83011261074d578081fd5b813567ffffffffffffffff80821115610764578283fd5b604051601f8301601f191681016020018281118282101715610784578485fd5b60405282815292508284830160200186101561079f57600080fd5b8260208601602083013760006020848301015250505092915050565b60008060008060008060c087890312156107d3578182fd5b8635955060208701356107e581610a7f565b945060408701356107f581610a7f565b935060608701359250608087013567ffffffffffffffff80821115610818578384fd5b6108248a838b0161073d565b935060a0890135915080821115610839578283fd5b5061084689828a0161073d565b9150509295509295509295565b600060208284031215610864578081fd5b5035919050565b60008151808452815b8181101561089057602081850181015186830182015201610874565b818111156108a15782602083870101525b50601f01601f19169290920160200192915050565b60208082528251828201819052600091906040908185019080840286018301878501865b8381101561097157888303603f19018552815180518452878101516001600160a01b03908116898601528782015116878501526060808201519085015260808082015160e082870181905291906109338388018261086b565b91505060a09150818301518682038388015261094f828261086b565b60c09485015197909401969096525050948701949250908601906001016108da565b509098975050505050505050565b8781526001600160a01b038781166020830152861660408201526060810185905260e0608082018190526000906109b89083018661086b565b82810360a08401526109ca818661086b565b9150508260c083015298975050505050505050565b8781526001600160a01b03878116602083015286166040820152606081018590526080810184905260e060a08201819052600090610a1f9083018561086b565b82810360c0840152610a31818561086b565b9a9950505050505050505050565b6020808252601b908201527f5472616e73616374696f6e206572726f72206f63637572726564210000000000604082015260600190565b90815260200190565b6001600160a01b0381168114610a9457600080fd5b5056fea2646970667358221220f2f3a2ded37ee1b4b7dd85376ae0fb599b8b95db36ff02387b127d7bffb67b1864736f6c63430006060033608060405234801561001057600080fd5b506040516103b83803806103b88339818101604052608081101561003357600080fd5b50805160208201516040830151606090930151600080546001600160a01b03199081166001600160a01b03948516908117835560018054831696861696909617909555600280548216909517909455600380548516958416959095179094556004805490931691161760ff60a01b191690556103039081906100b590396000f3fe608060405234801561001057600080fd5b50600436106100415760003560e01c8063443c28d814610046578063d2f3fcc714610076578063d7dcbe3b14610090575b600080fd5b6100746004803603604081101561005c57600080fd5b506001600160a01b03813581169160200135166100be565b005b61007e610190565b60408051918252519081900360200190f35b610074600480360360408110156100a657600080fd5b506001600160a01b03813581169160200135166101b0565b6003546001600160a01b0382811691161461010a5760405162461bcd60e51b815260040180806020018281038252602f81526020018061029f602f913960400191505060405180910390fd5b6004805460ff60a01b1916600160a01b178082556002546040805163f5c0e38360e01b81526001600160a01b03938416948101949094529082166024840152519084169163f5c0e38391604480830192600092919082900301818387803b15801561017457600080fd5b505af1158015610188573d6000803e3d6000fd5b505050505050565b600454600090600160a01b900460ff1660028111156101ab57fe5b905090565b6004546001600160a01b038281169116146101fc5760405162461bcd60e51b815260040180806020018281038252603081526020018061026f6030913960400191505060405180910390fd5b600480546002919060ff60a01b1916600160a01b830217905550816001600160a01b03166393a668b7826040518263ffffffff1660e01b815260040180826001600160a01b03166001600160a01b03168152602001915050600060405180830381600087803b15801561017457600080fdfe4f6e6c79204173736f6369617465642072656365697665722063616e2063616c6c20746869732066756e6374696f6e2e4f6e6c79204173736f63696174656420736869707065722063616e2063616c6c20746869732066756e6374696f6e2ea2646970667358221220dd0d75113566dbe466a53817b12dac3f140c359991b486e3a95ba2cbd5a3706264736f6c63430006060033608060405234801561001057600080fd5b506040516111c83803806111c883398101604081905261002f91610100565b600080546001600160a01b03199081166001600160a01b0389811691821784556001805484168a831617905560028890556003879055600480548416878316179055600580548416918616919091179055600680549092161760ff60a01b19169055604051829061009f906100f3565b6100a99190610173565b604051809103906000f0801580156100c5573d6000803e3d6000fd5b50600880546001600160a01b0319166001600160a01b03929092169190911790555061019f95505050505050565b610b638061066583390190565b60008060008060008060c08789031215610118578182fd5b865161012381610187565b602088015190965061013481610187565b809550506040870151935060608701519250608087015161015481610187565b60a088015190925061016581610187565b809150509295509295509295565b6001600160a01b0391909116815260200190565b6001600160a01b038116811461019c57600080fd5b50565b6104b7806101ae6000396000f3fe608060405234801561001057600080fd5b50600436106100575760003560e01c806350e073bc1461005c57806352b9996814610071578063638e9a3d146100845780636b099dca1461009757806380723520146100b5575b600080fd5b61006f61006a3660046102e8565b6100d0565b005b61006f61007f3660046102e8565b6100f2565b61006f6100923660046102e8565b6101cd565b61009f610293565b6040516100ac9190610478565b60405180910390f35b6100bd6102b3565b6040516100ac9796959493929190610316565b600580546001600160a01b0319166001600160a01b0392909216919091179055565b6005546001600160a01b038281169116146101285760405162461bcd60e51b815260040161011f90610398565b60405180910390fd5b6001600654600160a01b900460ff16600281111561014257fe5b1461015f5760405162461bcd60e51b815260040161011f90610365565b6006805460ff60a01b1916600160a11b179055600554600454600180546040516001600160a01b039485169493841693909116917f7e89c4b1a4e2b51aae84eb1f90e8a34cb792ece5ac5cb63db4830c891220b28d916101c29190600290610357565b60405180910390a450565b6004546001600160a01b038281169116146101fa5760405162461bcd60e51b815260040161011f90610428565b6000600654600160a01b900460ff16600281111561021457fe5b146102315760405162461bcd60e51b815260040161011f906103f1565b6006805460ff60a01b1916600160a01b179055600554600454600180546040516001600160a01b039485169493841693909116917f7e89c4b1a4e2b51aae84eb1f90e8a34cb792ece5ac5cb63db4830c891220b28d916101c291908190610357565b600654600090600160a01b900460ff1660028111156102ae57fe5b905090565b6001546002546003546006546004546005546008546001600160a01b0396871697959694959385169492831693918316921690565b6000602082840312156102f9578081fd5b81356001600160a01b038116811461030f578182fd5b9392505050565b6001600160a01b03978816815260208101969096526040860194909452918516606085015284166080840152831660a083015290911660c082015260e00190565b918252602082015260400190565b602080825260199082015278141c9bd91d58dd081b9bdd081c1a58dad959081d5c081e595d603a1b604082015260600190565b60208082526039908201527f4f6e6c79204d616e756661637475726572206f6620746865207061636b6167656040820152782063616e20726563656965766520746865207061636b61676560381b606082015260800190565b6020808252601c908201527f5061636b616765206d75737420626520617420537570706c6965722e00000000604082015260600190565b60208082526030908201527f4f6e6c79207472616e73706f72746572206f6620746865207061636b6167652060408201526f63616e207069636b207061636b61676560801b606082015260800190565b9081526020019056fea26469706673582212205555abf4dc12f83fc442ef50f5e56dfac2c1838b292739ebd4575aa70be09f8364736f6c634300060600336080604052600060025534801561001557600080fd5b50604051610b63380380610b6383398101604081905261003491610059565b600080546001600160a01b0319166001600160a01b0392909216919091179055610087565b60006020828403121561006a578081fd5b81516001600160a01b0381168114610080578182fd5b9392505050565b610acd806100966000396000f3fe608060405234801561001057600080fd5b506004361061004c5760003560e01c806327506f53146100515780633626a3681461006f57806378ce1365146100845780639ace38c214610099575b600080fd5b6100596100bf565b60405161006691906108b6565b60405180910390f35b61008261007d3660046107bb565b6102c7565b005b61008c61050b565b6040516100669190610a76565b6100ac6100a7366004610853565b610511565b604051610066979695949392919061097f565b600254606090818167ffffffffffffffff811180156100dd57600080fd5b5060405190808252806020026020018201604052801561011757816020015b61010461066a565b8152602001906001900390816100fc5790505b50905060005b828110156102bf57600081815260016020818152604092839020835160e08101855281548152818401546001600160a01b0390811682850152600280840154909116828701526003830154606083015260048301805487516101009782161597909702600019011691909104601f81018590048502860185019096528585529094919360808601939092908301828280156101f95780601f106101ce576101008083540402835291602001916101f9565b820191906000526020600020905b8154815290600101906020018083116101dc57829003601f168201915b505050918352505060058201805460408051602060026001851615610100026000190190941693909304601f810184900484028201840190925281815293820193929183018282801561028d5780601f106102625761010080835404028352916020019161028d565b820191906000526020600020905b81548152906001019060200180831161027057829003601f168201915b505050505081526020016006820154815250508282815181106102ac57fe5b602090810291909101015260010161011d565b509150505b90565b60025442906103a6576040805160e0810182528881526001600160a01b038089166020808401918252898316848601908152606085018a8152608086018a815260a087018a905260c08701899052600280546000908152600180875299902088518155955198860180549988166001600160a01b03199a8b1617905592519285018054939096169290971691909117909355915160038201559251805192939261037792600485019201906106a5565b5060a082015180516103939160058401916020909101906106a5565b5060c082015181600601559050506104b5565b6002546000190160009081526001602052604090205484146103e35760405162461bcd60e51b81526004016103da90610a3f565b60405180910390fd5b6040805160e0810182528881526001600160a01b038089166020808401918252898316848601908152606085018a8152608086018a815260a087018a905260c08701899052600280546000908152600180875299902088518155955198860180549988166001600160a01b03199a8b1617905592519285018054939096169290971691909117909355915160038201559251805192939261048a92600485019201906106a5565b5060a082015180516104a69160058401916020909101906106a5565b5060c082015181600601559050505b6002805460010190556040517f30d01d358fb0899fe4d50947b2e9301c952d9eed09b14c7ecdcbeed4434557c4906104fa90899089908990899087908a908a906109df565b60405180910390a150505050505050565b60025481565b60016020818152600092835260409283902080548184015460028084015460038501546004860180548a516101009a8216159a909a02600019011693909304601f810188900488028901880190995288885293976001600160a01b039384169793909116959394938301828280156105ca5780601f1061059f576101008083540402835291602001916105ca565b820191906000526020600020905b8154815290600101906020018083116105ad57829003601f168201915b5050505060058301805460408051602060026001851615610100026000190190941693909304601f810184900484028201840190925281815294959493509083018282801561065a5780601f1061062f5761010080835404028352916020019161065a565b820191906000526020600020905b81548152906001019060200180831161063d57829003601f168201915b5050505050908060060154905087565b6040805160e08101825260008082526020820181905291810182905260608082018390526080820181905260a082015260c081019190915290565b828054600181600116156101000203166002900490600052602060002090601f016020900481019282601f106106e657805160ff1916838001178555610713565b82800160010185558215610713579182015b828111156107135782518255916020019190600101906106f8565b5061071f929150610723565b5090565b6102c491905b8082111561071f5760008155600101610729565b600082601f83011261074d578081fd5b813567ffffffffffffffff80821115610764578283fd5b604051601f8301601f191681016020018281118282101715610784578485fd5b60405282815292508284830160200186101561079f57600080fd5b8260208601602083013760006020848301015250505092915050565b60008060008060008060c087890312156107d3578182fd5b8635955060208701356107e581610a7f565b945060408701356107f581610a7f565b935060608701359250608087013567ffffffffffffffff80821115610818578384fd5b6108248a838b0161073d565b935060a0890135915080821115610839578283fd5b5061084689828a0161073d565b9150509295509295509295565b600060208284031215610864578081fd5b5035919050565b60008151808452815b8181101561089057602081850181015186830182015201610874565b818111156108a15782602083870101525b50601f01601f19169290920160200192915050565b60208082528251828201819052600091906040908185019080840286018301878501865b8381101561097157888303603f19018552815180518452878101516001600160a01b03908116898601528782015116878501526060808201519085015260808082015160e082870181905291906109338388018261086b565b91505060a09150818301518682038388015261094f828261086b565b60c09485015197909401969096525050948701949250908601906001016108da565b509098975050505050505050565b8781526001600160a01b038781166020830152861660408201526060810185905260e0608082018190526000906109b89083018661086b565b82810360a08401526109ca818661086b565b9150508260c083015298975050505050505050565b8781526001600160a01b03878116602083015286166040820152606081018590526080810184905260e060a08201819052600090610a1f9083018561086b565b82810360c0840152610a31818561086b565b9a9950505050505050505050565b6020808252601b908201527f5472616e73616374696f6e206572726f72206f63637572726564210000000000604082015260600190565b90815260200190565b6001600160a01b0381168114610a9457600080fd5b5056fea2646970667358221220f2f3a2ded37ee1b4b7dd85376ae0fb599b8b95db36ff02387b127d7bffb67b1864736f6c63430006060033608060405234801561001057600080fd5b506040516103bc3803806103bc8339818101604052608081101561003357600080fd5b50805160208201516040830151606090930151600080546001600160a01b03199081166001600160a01b03948516908117835560018054831696861696909617909555600280548216909517909455600380548516958416959095179094556004805490931691161760ff60a01b191690556103079081906100b590396000f3fe608060405234801561001057600080fd5b50600436106100415760003560e01c806353157b1a14610046578063c0114d0614610076578063f7addc3e14610090575b600080fd5b6100746004803603604081101561005c57600080fd5b506001600160a01b03813581169160200135166100be565b005b61007e610190565b60408051918252519081900360200190f35b610074600480360360408110156100a657600080fd5b506001600160a01b03813581169160200135166101b0565b6003546001600160a01b0382811691161461010a5760405162461bcd60e51b815260040180806020018281038252603381526020018061026f6033913960400191505060405180910390fd5b6004805460ff60a01b1916600160a01b17808255600254604080516305e3aeb160e31b81526001600160a01b039384169481019490945290821660248401525190841691632f1d758891604480830192600092919082900301818387803b15801561017457600080fd5b505af1158015610188573d6000803e3d6000fd5b505050505050565b600454600090600160a01b900460ff1660028111156101ab57fe5b905090565b6004546001600160a01b038281169116146101fc5760405162461bcd60e51b81526004018080602001828103825260308152602001806102a26030913960400191505060405180910390fd5b600480546002919060ff60a01b1916600160a01b830217905550816001600160a01b031663c8f5f189826040518263ffffffff1660e01b815260040180826001600160a01b03166001600160a01b03168152602001915050600060405180830381600087803b15801561017457600080fdfe4f6e6c79204173736f636961746564207472616e73706f727465722063616e2063616c6c20746869732066756e6374696f6e2e4f6e6c79204173736f6369617465642072656365697665722063616e2063616c6c20746869732066756e6374696f6e2ea264697066735822122039adbd0ef51def713ed46a17641cb44440e7f7ffd96507d7633fd881a47ca08764736f6c63430006060033cfbd3a658e0a38877312e3f5767ddb0c6541620d7bd0368d43e0b94a55d9876ea264697066735822122082917dc8028ca897362ca16ff9b4a1f5c74aa3f6c30fc6b6d2752d0753480e6564736f6c63430006060033",
  "immutableReferences": {},
  "source": "pragma solidity >=0.4.21 <0.7.0;\r\npragma experimental ABIEncoderV2;\r\n\r\nimport './RawMaterial.sol';\r\n// import './Supplier.sol';\r\n// import './Transporter.sol';\r\nimport './Medicine.sol';\r\n// import './Manufacturer.sol';\r\nimport './MedicineW_D.sol';\r\n// import './Wholesaler.sol';\r\nimport './MedicineD_C.sol';\r\n// import './Distributor.sol';\r\n// import './Customer.sol';\r\n\r\n\r\n//// New supply chain : supplier -> transporter -> manufacturer -> transporter -> whole-saler -> transporter -> distributor -> transporter -> customer/hospital/pharmacy\r\n\r\ncontract SupplyChain {\r\n    \r\n    address Owner;\r\n    \r\n    constructor() public {\r\n        Owner = msg.sender;\r\n    }\r\n    \r\n    modifier onlyOwner() {\r\n        require(Owner == msg.sender);\r\n        _;\r\n    }\r\n    \r\n    modifier checkUser(address addr) {\r\n        require(addr == msg.sender);\r\n        _;\r\n    }\r\n    \r\n    enum roles {\r\n        noRole,\r\n        supplier,\r\n        transporter,\r\n        manufacturer,\r\n        wholesaler,\r\n        distributor,\r\n        customer\r\n    }\r\n    \r\n    \r\n    //////////////// Events ////////////////////\r\n    \r\n    event UserRegister(address indexed _address, bytes32 name);\r\n    event buyEvent(address buyer, address indexed seller, address packageAddr, bytes signature, uint indexed timestamp);\r\n    event respondEvent(address indexed buyer, address seller, address packageAddr, bytes signature, uint indexed timestamp);\r\n    event sendEvent(address seller, address buyer, address indexed packageAddr, bytes signature, uint indexed timestamp);\r\n    event receivedEvent(address indexed buyer, address seller, address packageAddr, bytes signature, uint indexed timestamp);\r\n    \r\n    \r\n    //////////////// Event functions (All entities) ////////////////////\r\n\r\n    \r\n    function requestProduct(address buyer, address seller, address packageAddr, bytes memory signature) public {\r\n        emit buyEvent(buyer, seller, packageAddr, signature, now);\r\n    }\r\n    \r\n    function respondToEntity(address buyer, address seller, address packageAddr, bytes memory signature) public {\r\n        emit respondEvent(buyer, seller, packageAddr, signature, now);\r\n    }\r\n    \r\n    function sendPackageToEntity(address buyer, address seller, address packageAddr, bytes memory signature) public {\r\n        emit sendEvent(seller, buyer, packageAddr, signature, now);\r\n    }\r\n    \r\n    /////////////// Users (Only Owner Executable) //////////////////////\r\n    \r\n    struct userData {\r\n        bytes32 name;\r\n        string[] userLoc;\r\n        roles role;\r\n        address userAddr;\r\n    }\r\n    \r\n    mapping (address => userData) public userInfo;\r\n    \r\n    function registerUser(bytes32 name, string[] memory loc, uint role, address _userAddr) public onlyOwner {\r\n        userInfo[_userAddr].name = name;\r\n        userInfo[_userAddr].userLoc = loc;\r\n        userInfo[_userAddr].role = roles(role);\r\n        userInfo[_userAddr].userAddr = _userAddr;\r\n        \r\n        emit UserRegister(_userAddr, name);\r\n    }\r\n    \r\n    function changeUserRole(uint _role, address _addr) public onlyOwner returns(string memory) {\r\n        userInfo[_addr].role = roles(_role);\r\n       return \"Role Updated!\";\r\n    }\r\n    \r\n    function getUserInfo(address _address) public view returns(\r\n        userData memory\r\n        ) {\r\n        return userInfo[_address];\r\n    }\r\n    \r\n\r\n    /////////////// Supplier //////////////////////\r\n    \r\n    mapping (address => address[]) public supplierRawMaterials;\r\n    \r\n    \r\n    function createRawMaterialPackage(\r\n        bytes32 _description,\r\n        uint _quantity,\r\n        address _transporterAddr,\r\n        address _manufacturerAddr\r\n    ) public returns(address) {\r\n\r\n        RawMaterial rawMaterial = new RawMaterial(\r\n            msg.sender,\r\n            address(bytes20(sha256(abi.encodePacked(msg.sender, now)))),\r\n            _description,\r\n            _quantity,\r\n            _transporterAddr,\r\n            _manufacturerAddr\r\n        );\r\n        \r\n        supplierRawMaterials[msg.sender].push(address(rawMaterial));\r\n        return address(rawMaterial);\r\n    }\r\n    \r\n    function getNoOfPackagesOfSupplier() public view returns(uint) {\r\n        return supplierRawMaterials[msg.sender].length;\r\n    }\r\n    \r\n    \r\n    function getAllPackages() public view returns(address[] memory) {\r\n        uint len = supplierRawMaterials[msg.sender].length;\r\n        address[] memory ret = new address[](len);\r\n        for (uint i = 0; i < len; i++) {\r\n            ret[i] = supplierRawMaterials[msg.sender][i];\r\n        }\r\n        return ret;\r\n    }\r\n    \r\n    ///////////////  Transporter ///////////////\r\n    \r\n    \r\n    function transporterHandlePackage(\r\n        address _addr,\r\n        uint transportertype,\r\n        address cid\r\n        ) public {\r\n            \r\n        require(\r\n            userInfo[msg.sender].role == roles.transporter,\r\n            \"Only Transporter can call this function\"\r\n        );\r\n        require(\r\n            transportertype > 0,\r\n            \"Transporter Type is incorrect\"\r\n        );\r\n        \r\n        if(transportertype == 1) { \r\n            /// Supplier -> Manufacturer\r\n            RawMaterial(_addr).pickPackage(msg.sender);\r\n        } else if(transportertype == 2) { \r\n            /// Manufacturer -> Wholesaler\r\n            Medicine(_addr).pickMedicine(msg.sender);\r\n        } else if(transportertype == 3) {   \r\n            // Wholesaler to Distributor\r\n            MedicineW_D(cid).pickWD(_addr, msg.sender);\r\n        } else if(transportertype == 4) {   \r\n            // Distrubutor to Customer\r\n            MedicineD_C(cid).pickDC(_addr, msg.sender);\r\n        }\r\n    }\r\n    \r\n    \r\n    ///////////////  Manufacturer ///////////////\r\n    \r\n    mapping (address => address[]) public manufacturerRawMaterials;\r\n    mapping (address => address[]) public manufacturerMedicines;\r\n    \r\n    \r\n    function manufacturerReceivedPackage(\r\n        address _addr,\r\n        address _manufacturerAddress,\r\n        address _sellerAddr,\r\n        bytes memory signature\r\n        ) public {\r\n            \r\n        RawMaterial(_addr).receivedPackage(_manufacturerAddress);\r\n        manufacturerRawMaterials[_manufacturerAddress].push(_addr);\r\n        emit receivedEvent(msg.sender, _sellerAddr, _addr, signature, now);\r\n    }\r\n    \r\n    function getAllRawMaterials() public view returns(address[] memory) {\r\n        uint len = manufacturerRawMaterials[msg.sender].length;\r\n        address[] memory ret = new address[](len);\r\n        for (uint i = 0; i < len; i++) {\r\n            ret[i] = manufacturerRawMaterials[msg.sender][i];\r\n        }\r\n        return ret;\r\n    }\r\n\r\n    function manufacturerCreatesMedicine(\r\n        address _manufacturerAddr,\r\n        bytes32 _description,\r\n        address[] memory _rawAddr,\r\n        uint _quantity,\r\n        address[] memory _transporterAddr\r\n        ) public {\r\n            \r\n        Medicine _medicine = new Medicine(\r\n            _manufacturerAddr,\r\n            _description,\r\n            _rawAddr,\r\n            _quantity,\r\n            _transporterAddr\r\n        );\r\n        \r\n        manufacturerMedicines[_manufacturerAddr].push(address(_medicine));\r\n        \r\n    }\r\n    \r\n    function getAllCreatedMedicines() public view returns(address[] memory) {\r\n        uint len = manufacturerMedicines[msg.sender].length;\r\n        address[] memory ret = new address[](len);\r\n        for (uint i = 0; i < len; i++) {\r\n            ret[i] = manufacturerMedicines[msg.sender][i];\r\n        }\r\n        return ret;\r\n    }\r\n    \r\n\r\n    ///////////////  Wholesaler  ///////////////\r\n\r\n    mapping(address => address[]) public MedicinesAtWholesaler;\r\n    mapping(address => address[]) public MedicineWtoD;\r\n    mapping(address => address) public MedicineWtoDTxContract;\r\n    \r\n    function wholesalerReceivedMedicine(\r\n        address _address,\r\n        address _sellerAddr,\r\n        bytes memory signature\r\n        ) public {\r\n        require(\r\n            userInfo[msg.sender].role == roles.wholesaler,\r\n            \"Only Wholesaler can call this function\"\r\n        );\r\n        \r\n        uint rtype = Medicine(_address).receivedMedicine(msg.sender);\r\n        MedicinesAtWholesaler[msg.sender].push(_address);\r\n        emit receivedEvent(msg.sender, _sellerAddr, _address, signature, now);\r\n    }\r\n    \r\n    function transferMedicineWtoD(\r\n            address _address,\r\n            address transporter,\r\n            address receiver\r\n        ) public {\r\n            \r\n        MedicineW_D wd = new MedicineW_D(\r\n            _address,\r\n            msg.sender,\r\n            transporter,\r\n            receiver\r\n        );\r\n        MedicineWtoD[msg.sender].push(address(wd));\r\n        MedicineWtoDTxContract[_address] = address(wd);\r\n    }\r\n\r\n    \r\n    function getBatchIdByIndexWD(uint index) public view returns(address packageID) {\r\n        require(\r\n            userInfo[msg.sender].role == roles.wholesaler,\r\n            \"Only Wholesaler Can call this function.\"\r\n        );\r\n        return MedicineWtoD[msg.sender][index];\r\n    }\r\n\r\n    function getSubContractWD(address _address) public view returns (address SubContractWD) {\r\n        return MedicineWtoDTxContract[_address];\r\n    }\r\n    \r\n    function getAllMedicinesAtWholesaler() public view returns(address[] memory) {\r\n        uint len = MedicinesAtWholesaler[msg.sender].length;\r\n        address[] memory ret = new address[](len);\r\n        for (uint i = 0; i < len; i++) {\r\n            ret[i] = MedicinesAtWholesaler[msg.sender][i];\r\n        }\r\n        return ret;\r\n    }\r\n\r\n\r\n//     ///////////////  Distributor  ///////////////\r\n\r\n    mapping(address => address[]) public MedicinesAtDistributor;\r\n    mapping(address => address[]) public MedicineDtoC;\r\n    mapping(address => address) public MedicineDtoCTxContract;\r\n\r\n\r\n    function distributorReceivedMedicine(\r\n      address _address,\r\n      address cid,\r\n      address _sellerAddr,\r\n      bytes memory signature\r\n    ) public {\r\n        require(\r\n            userInfo[msg.sender].role == roles.distributor &&\r\n            msg.sender == Medicine(_address).getWDC()[1],\r\n            \"Only Distributor or current owner of package can call this function\"  \r\n        );\r\n        \r\n        uint rtype = Medicine(_address).receivedMedicine(msg.sender);\r\n        if(rtype == 2){\r\n            MedicinesAtDistributor[msg.sender].push(_address);\r\n            if(Medicine(_address).getWDC()[0] != address(0)){\r\n                MedicineW_D(cid).receiveWD(_address, msg.sender);\r\n            }\r\n        }\r\n        emit receivedEvent(msg.sender, _sellerAddr, _address, signature, now);\r\n    }\r\n\r\n    function distributorTransferMedicinetoCustomer(\r\n        address _address,\r\n        address transporter,\r\n        address receiver\r\n    ) public {\r\n        require(\r\n            userInfo[msg.sender].role == roles.distributor &&\r\n            msg.sender == Medicine(_address).getWDC()[1],\r\n            \"Only Distributor or current owner of package can call this function\"\r\n        );\r\n        MedicineD_C dp = new MedicineD_C(\r\n            _address,\r\n            msg.sender,\r\n            transporter,\r\n            receiver\r\n        );\r\n        MedicineDtoC[msg.sender].push(address(dp));\r\n        MedicineDtoCTxContract[_address] = address(dp);\r\n    }\r\n    \r\n    function getBatchesCountDC() public view returns (uint count){\r\n        require(\r\n            userInfo[msg.sender].role == roles.distributor,\r\n            \"Only Distributor Can call this function.\"\r\n        );\r\n        return MedicineDtoC[msg.sender].length;\r\n    }\r\n\r\n    function getBatchIdByIndexDC(uint index) public view returns(address packageID) {\r\n        require(\r\n            userInfo[msg.sender].role == roles.distributor,\r\n            \"Only Distributor Can call this function.\"\r\n        );\r\n        return MedicineDtoC[msg.sender][index];\r\n    }\r\n\r\n    function getSubContractDC(address _address) public view returns (address SubContractDP) {\r\n        return MedicineDtoCTxContract[_address];\r\n    }\r\n    \r\n    function getAllMedicinesAtDistributor() public view returns(address[] memory) {\r\n        uint len = MedicinesAtDistributor[msg.sender].length;\r\n        address[] memory ret = new address[](len);\r\n        for (uint i = 0; i < len; i++) {\r\n            ret[i] = MedicinesAtDistributor[msg.sender][i];\r\n        }\r\n        return ret;\r\n    }\r\n    \r\n    \r\n//     ///////////////  Customer  ///////////////\r\n    \r\n    \r\n//     function customerReceivedMedicine(\r\n//         address _address,\r\n//         address cid\r\n//     ) public {\r\n//         require(\r\n//             userInfo[msg.sender].role == roles.customer,\r\n//             \"Only Customer Can call this function.\"\r\n//         );\r\n//         medicineRecievedAtCustomer(_address, cid);\r\n//     }\r\n\r\n//     function updateStatus(\r\n//         address _address,\r\n//         uint Status\r\n//     ) public {\r\n//         require(\r\n//             userInfo[msg.sender].role == roles.customer &&\r\n//             msg.sender == Medicine(_address).getWDC()[2],\r\n//             \"Only Customer or current owner of package can call this function\"\r\n//         );\r\n//         require(sale[_address] == salestatus(1), \"Medicine Must be at Customer\");\r\n        \r\n//         updateSaleStatus(_address, Status);\r\n//     }\r\n\r\n//     function getSalesInfo(\r\n//         address _address\r\n//     ) public\r\n//     view\r\n//     returns(\r\n//         uint Status \r\n//     ){\r\n//         return salesInfo(_address);\r\n//     }\r\n\r\n    \r\n//     function getBatchesCountC() public view returns(uint count) {\r\n//         require(\r\n//             userInfo[msg.sender].role == roles.customer,\r\n//             \"Only Wholesaler or current owner of package can call this function\"\r\n//         );\r\n//         return  MedicineBatchAtCustomer[msg.sender].length;\r\n//     }\r\n\r\n//     function getBatchIdByIndexC(uint index) public view returns(address _address) {\r\n//         require(\r\n//             userInfo[msg.sender].role == roles.customer,\r\n//             \"Only Wholesaler or current owner of package can call this function\"\r\n//         );\r\n//         return MedicineBatchAtCustomer[msg.sender][index];\r\n//     }\r\n    \r\n    function verify(address p, bytes32 hash, uint8 v, bytes32 r, bytes32 s) public pure returns(bool) {\r\n        return ecrecover(hash, v, r, s) == p;\r\n    }   \r\n}\r\n    ",
  "sourcePath": "D:\\Mini Projects\\Major Project\\Pharma\\Pharma-Chain\\blockchain\\testing\\Testing.sol",
  "compiler": {
    "name": "solc",
    "version": "0.6.6+commit.6c089d02.Emscripten.clang"
  },
  "schemaVersion": "3.4.16",
  "updatedAt": "2025-02-13T06:50:59.039Z",
  "networkType": "ethereum",
  "devdoc": {
    "methods": {}
  },
  "userdoc": {
    "methods": {
      "requestProduct(address,address,address,bytes)": {
        "notice": "///////////// Event functions (All entities) ////////////////////"
      },
      "transporterHandlePackage(address,uint256,address)": {
        "notice": "////////////  Transporter ///////////////"
      }
    },
    "notice": "/ New supply chain : supplier -> transporter -> manufacturer -> transporter -> whole-saler -> transporter -> distributor -> transporter -> customer/hospital/pharmacy"
  }
}